:100000000C9435000C945D000C945D000C945D0024
:100010000C945D000C945D000C945D000C945D00EC
:100020000C945D000C945D000C945D000C945D00DC
:100030000C945D000C945D000C945D000C945D00CC
:100040000C9470020C945D000C94E0020C94BA02C3
:100050000C945D000C945D000C945D000C945D00AC
:100060000C945D000C945D00A70411241FBECFEF1B
:10007000D8E0DEBFCDBF21E0A8E2B1E001C01D9213
:10008000A23DB207E1F711E0A0E0B1E0ECE1FEE053
:1000900002C005900D92A832B107D9F710E0C5E370
:1000A000D0E004C02197FE010E940B05C433D107A4
:1000B000C9F70E9412030C940C070C940000AF9235
:1000C000BF92CF92DF92EF92FF920F931F93CF9345
:1000D000DF936C017B018B01040F151FEB015E01A7
:1000E000AE18BF08C017D10759F06991D601ED913C
:1000F000FC910190F081E02DC6010995892B79F7DB
:10010000C501DF91CF911F910F91FF90EF90DF908C
:10011000CF90BF90AF900895FC01538D448D252F53
:1001200030E0842F90E0821B930B541710F0CF9691
:10013000089501970895FC01918D828D981761F0C3
:10014000A28DAE0FBF2FB11D5D968C91928D9F5FDA
:100150009F73928F90E008958FEF9FEF08952FB7D0
:10016000F89480912D0190912E01A0912F01B091D2
:1001700030012FBF8093390190933A01A0933B0146
:10018000B0933C0181E391E00E949B0097FF26C061
:100190002FB7F89480912D0190912E01A0912F01FD
:1001A000B09130012FBF4091390150913A016091D7
:1001B0003B0170913C01841B950BA60BB70B409142
:1001C00035015091360160913701709138018417E3
:1001D0009507A607B707B0F28FEF9FEF0895FC01D0
:1001E000918D828D981731F0828DE80FF11D858DEC
:1001F00090E008958FEF9FEF0895FC01918D228D7F
:10020000892F90E0805C9F4F821B91098F73992703
:10021000089581E391E00E94FD0021E0892B09F41B
:1002200020E0822F089580E090E0892B29F00E9441
:10023000090181110C9400000895FC01A48DA80F00
:10024000B92FB11DA35ABF4F2C91848D90E0019618
:100250008F739927848FA689B7892C93A089B18938
:100260008C91837080648C93938D848D981306C0D9
:100270000288F389E02D80818F7D80830895EF923D
:10028000FF920F931F93CF93DF93EC0181E0888F50
:100290009B8D8C8D98131AC0E889F989808185FF20
:1002A00015C09FB7F894EE89FF896083E889F989C2
:1002B00080818370806480839FBF81E090E0DF91C4
:1002C000CF911F910F91FF90EF900895F62E0B8D17
:1002D00010E00F5F1F4F0F731127E02E8C8D8E11D2
:1002E0000CC00FB607FCFACFE889F989808185FF39
:1002F000F5CFCE010E941D01F1CFEB8DEC0FFD2F4C
:10030000F11DE35AFF4FF0829FB7F8940B8FEA89F3
:10031000FB8980818062CFCFCF93DF93EC01888D02
:100320008823B9F0AA89BB89E889F9898C9185FD70
:1003300003C0808186FD0DC00FB607FCF7CF8C91FE
:1003400085FFF2CF808185FFEDCFCE010E941D0198
:10035000E9CFDF91CF910895FC0160817181611532
:10036000710561F0FB0101900020E9F73197AF01C1
:10037000461B570B81E391E00E945F0081E391E00F
:100380000C948C01FC0180819181009711F00C94F8
:10039000AD0508950F931F93CF93DF93EC018881F0
:1003A0009981009759F02A813B812617370730F051
:1003B00081E0DF91CF911F910F9108958B016F5FC5
:1003C0007F4F0E943606009759F0998388831B83DC
:1003D0000A832C813D81232B59F7FC011082E8CF41
:1003E00080E0E7CFEF92FF920F931F93CF93DF93BD
:1003F000EC017B01FB0101900020E9F73197E61B3E
:10040000F70BA1F00C811D810E0F1F1FB8010E9478
:10041000CA0128813981882389F08C819D81B701A7
:10042000820F931F0E9405071D830C83CE01DF916D
:10043000CF911F910F91FF90EF90089521153105F5
:1004400019F0C9010E94AD05198218821D821C8213
:100450001B821A82EBCFEF92FF920F931F93CF93E1
:10046000DF93EC017B018A01BA010E94CA01288155
:100470003981811114C02115310519F0C9010E947B
:10048000AD05198218821D821C821B821A82CE0140
:10049000DF91CF911F910F91FF90EF9008951D83F1
:1004A0000C83B701C9010E940507F1CFFB01DC01F4
:1004B00011961C921E9213961C921E9212971596DC
:1004C0001C921E9214978617970749F060817181DC
:1004D0006115710521F0448155810C942B0208951A
:1004E0001F920F920FB60F9211242F933F938F9369
:1004F0009F93AF93BF9380912D0190912E01A09176
:100500002F01B091300130912C0123E0230F2D37C2
:1005100058F50196A11DB11D20932C0180932D014A
:1005200090932E01A0932F01B09330018091280168
:1005300090912901A0912A01B0912B010196A11D52
:10054000B11D8093280190932901A0932A01B093B3
:100550002B01BF91AF919F918F913F912F910F9060
:100560000FBE0F901F90189526E8230F0296A11D2D
:10057000B11DD2CF1F920F920FB60F9211242F935D
:100580003F934F935F936F937F938F939F93AF931B
:10059000BF93EF93FF9381E391E00E941D01FF91D0
:1005A000EF91BF91AF919F918F917F916F915F91EB
:1005B0004F913F912F910F900FBE0F901F90189564
:1005C0001F920F920FB60F9211242F938F939F9328
:1005D000EF93FF93E0914101F09142018081E0911E
:1005E0004701F091480182FD1BC0908180914A0132
:1005F0008F5F8F7320914B01821741F0E0914A0188
:10060000F0E0EF5CFE4F958F80934A01FF91EF91F0
:100610009F918F912F910F900FBE0F901F90189563
:100620008081F4CFCF93DF93CDB7DEB762970FB65B
:10063000F894DEBF0FBECDBF789484B5826084BDD0
:1006400084B5816084BD85B5826085BD85B58160D6
:1006500085BD80916E00816080936E001092810054
:10066000809181008260809381008091810081600F
:1006700080938100809180008160809380008091D0
:10068000B10084608093B1008091B000816080935C
:10069000B00080917A00846080937A0080917A0023
:1006A000826080937A0080917A00816080937A00E2
:1006B00080917A00806880937A001092C100E09166
:1006C0004101F091420182E08083E0913D01F0918F
:1006D0003E011082E0913F01F091400180E1808372
:1006E00010924901E0914501F091460186E0808336
:1006F000E0914301F0914401808180618083E09129
:100700004301F0914401808188608083E09143013E
:10071000F0914401808180688083E0914301F091F1
:10072000440180818F7D808381E090E0A0E0B0E093
:100730008093350190933601A0933701B09338012F
:1007400081E391E00E94FD00181619066CF51A82EB
:1007500019821C821B821E821D8250E040E062E2F0
:1007600071E0CE0101960E942B020E94AF000D8124
:100770001E8197FD19C08F8318860F5F1F4FB80128
:10078000CE0101960E94CA01882379F329813A811A
:100790008D819E81BE01695F7F4F820F931F0E94F2
:1007A00005071E830D83E1CF8D819E81892B49F042
:1007B00068E171E089819A810E94FC0611E0892B31
:1007C00009F010E0CE0101960E94C201112309F444
:1007D000B7CF1A8219821C821B821E821D8241E0C1
:1007E00050E061E271E0CE0101960E942B02CE0141
:1007F00001960E94AC01CE0101960E94C20100E068
:1008000010E01E861D86188A1F861A8A198A45E0FE
:1008100050E06AE171E0CE010D960E942B02BE010C
:10082000635F7F4FCE0101960E94560260E271E045
:10083000CE0101960E94F201BC01CE0107960E94F2
:100840005602CE0107960E94AC01CE0107960E9487
:10085000C201CE0101960E94C201CE010D960E94F6
:10086000C2011E861D86188A1F861A8A198A45E0CB
:1008700050E06AE171E0CE010D960E942B02BE01AC
:10088000635F7F4FCE0101960E94560260E271E0E5
:10089000CE0101960E94F201BC01CE0107960E9492
:1008A0005602CE0107960E94AC01CE0107960E9427
:1008B000C201CE0101960E94C201CE010D960E9496
:1008C000C2011A8219821C821B821E821D8243E091
:1008D00050E063E271E0CE0101960E942B02CE014E
:1008E00001960E94AC01CE0101960E94C20181E3F3
:1008F00091E00E948C01E0914301F09144018081DC
:100900008F7E8083E0914301F09144018081877F55
:100910008083E0914301F091440180818F7780834F
:10092000E0914301F091440180818F7D808380912B
:100930004B0180934A010115110509F462CF0E9411
:100940000901882309F45DCF0E9400005ACFE1E33A
:10095000F1E01382128288EE93E0A0E0B0E084839D
:100960009583A683B7838AE091E09183808385ECA9
:1009700090E09587848784EC90E09787868780EC69
:1009800090E0918B808B81EC90E0938B828B82EC5A
:1009900090E0958B848B86EC90E0978B868B118E04
:1009A000128E138E148E08952F923F924F925F9263
:1009B0006F927F928F929F92AF92BF92CF92DF926F
:1009C000EF92FF920F931F93CF93DF93CDB7DEB7D4
:1009D000CA1BDB0B0FB6F894DEBF0FBECDBF099468
:1009E0002A88398848885F846E847D848C849B84BF
:1009F000AA84B984C884DF80EE80FD800C811B81CD
:100A0000AA81B981CE0FD11D0FB6F894DEBF0FBEFB
:100A1000CDBFED010895EE0FFF1F0590F491E02D7D
:100A200009940F931F93CF93DF938230910510F4B5
:100A300082E090E0E091D001F091D10130E020E03F
:100A4000B0E0A0E0309799F42115310509F44AC0CF
:100A5000281B390B24303105D8F58A819B8161151B
:100A6000710589F1FB0193838283FE0111C04081EE
:100A700051810281138148175907E0F0481759073F
:100A800099F4109761F012960C93129713961C9399
:100A90003296CF01DF91CF911F910F91089500936E
:100AA000D0011093D101F4CF2115310551F0421737
:100AB000530738F0A901DB019A01BD01DF01F801FC
:100AC000C1CFEF01F9CF9093D1018093D001CDCF69
:100AD000FE01E20FF31F8193919322503109398374
:100AE0002883D7CF2091CE013091CF01232B41F421
:100AF00020910201309103013093CF012093CE0168
:100B000020910001309101012115310541F42DB7EB
:100B10003EB74091040150910501241B350BE09133
:100B2000CE01F091CF01E217F307A0F42E1B3F0B8B
:100B30002817390778F0AC014E5F5F4F241735074F
:100B400048F04E0F5F1F5093CF014093CE01819329
:100B500091939FCFF0E0E0E09CCFCF93DF9300979D
:100B6000E9F0FC01329713821282A091D001B0917A
:100B7000D101ED0130E020E01097A1F42081318116
:100B8000820F931F2091CE013091CF012817390792
:100B900009F061C0F093CF01E093CE01DF91CF91D6
:100BA0000895EA01CE17DF07E8F54A815B819E01CF
:100BB00041155105B1F7E901FB83EA834991599148
:100BC000C40FD51FEC17FD0761F480819181029657
:100BD000840F951FE90199838883828193819B8388
:100BE0008A83F0E0E0E012968D919C911397009734
:100BF000B9F52D913C911197CD010296820F931F6B
:100C00002091CE013091CF012817390739F630975E
:100C100051F51092D1011092D001B093CF01A09361
:100C2000CE01BCCFD383C28340815181840F951FF5
:100C3000C817D90761F44E5F5F4F88819981480FCB
:100C4000591F518340838A819B819383828321151D
:100C5000310509F0B0CFF093D101E093D0019ECFE0
:100C6000FD01DC01C0CF13821282D7CFB0E0A0E03B
:100C7000ECE3F6E00C94D6048C01009751F4CB0120
:100C80000E9411058C01C801CDB7DEB7E0E10C94DC
:100C9000F204FC01E60FF71F9C0122503109E21714
:100CA000F30708F49DC0D901CD91DC911197C617C7
:100CB000D70798F0C530D10530F3CE0104978617D9
:100CC000970708F3C61BD70B2297C193D1936D9357
:100CD0007C93CF010E94AD05D6CF5B01AC1ABD0A53
:100CE0004C018C0E9D1EA091D001B091D101512CD0
:100CF000412CF12CE12C109731F58091CE0190918F
:100D0000CF018815990509F05CC04616570608F012
:100D100058C08091000190910101009741F48DB776
:100D20009EB74091040150910501841B950BE81773
:100D3000F90708F055C0F093CF01E093CE01F90117
:100D400071836083A0CF8D919C91119712966C90C6
:100D5000129713967C901397A815B90559F56C0155
:100D600042E0C40ED11CCA14DB0420F1AC014A19C4
:100D70005B09DA011296159780F0628273825183C3
:100D80004083D9016D937C93E114F10471F0D70194
:100D90001396FC93EE93129776CF22968C0F9D1F9D
:100DA000F90191838083F301EFCFF093D101E093B8
:100DB000D00169CF4816590608F42C017D01D301F2
:100DC0009ACFCB010E9411057C01009749F0AE013A
:100DD000B8010E94F306C8010E94AD05870153CFF8
:100DE00010E000E050CFFB01DC0102C001900D9249
:100DF00041505040D8F70895FB01DC018D910190DE
:100E000080190110D9F3990B0895FB01DC010190C1
:0C0E10000D920020E1F70895F894FFCF48
:100E1C000000D2018000000000003F015F008C0048
:100E2C008C01FD009B00EF0053005465737432007D
:080E3C003A3100456E6400002C
:00000001FF
